{
	"Bino_Mint/contracts/artifacts/test.sol": {
		"Test": {
			"abi": [
				{
					"inputs": [
						{
							"internalType": "address",
							"name": "addr",
							"type": "address"
						}
					],
					"name": "getInfo",
					"outputs": [
						{
							"internalType": "string",
							"name": "",
							"type": "string"
						}
					],
					"stateMutability": "view",
					"type": "function"
				},
				{
					"inputs": [
						{
							"internalType": "address",
							"name": "",
							"type": "address"
						}
					],
					"name": "map",
					"outputs": [
						{
							"internalType": "string",
							"name": "",
							"type": "string"
						}
					],
					"stateMutability": "view",
					"type": "function"
				},
				{
					"inputs": [
						{
							"internalType": "address",
							"name": "addr",
							"type": "address"
						}
					],
					"name": "setAddress",
					"outputs": [],
					"stateMutability": "nonpayable",
					"type": "function"
				}
			],
			"devdoc": {
				"kind": "dev",
				"methods": {},
				"version": 1
			},
			"evm": {
				"assembly": "    /* \"Bino_Mint/contracts/artifacts/test.sol\":58:309  contract Test {... */\n  mstore(0x40, 0x80)\n  callvalue\n  dup1\n  iszero\n  tag_1\n  jumpi\n  0x00\n  dup1\n  revert\ntag_1:\n  pop\n  dataSize(sub_0)\n  dup1\n  dataOffset(sub_0)\n  0x00\n  codecopy\n  0x00\n  return\nstop\n\nsub_0: assembly {\n        /* \"Bino_Mint/contracts/artifacts/test.sol\":58:309  contract Test {... */\n      mstore(0x40, 0x80)\n      callvalue\n      dup1\n      iszero\n      tag_1\n      jumpi\n      0x00\n      dup1\n      revert\n    tag_1:\n      pop\n      jumpi(tag_2, lt(calldatasize, 0x04))\n      shr(0xe0, calldataload(0x00))\n      dup1\n      0xb721ef6e\n      eq\n      tag_3\n      jumpi\n      dup1\n      0xe30081a0\n      eq\n      tag_4\n      jumpi\n      dup1\n      0xffdd5cf1\n      eq\n      tag_5\n      jumpi\n    tag_2:\n      0x00\n      dup1\n      revert\n        /* \"Bino_Mint/contracts/artifacts/test.sol\":78:116  mapping (address => string) public map */\n    tag_3:\n      tag_6\n      0x04\n      dup1\n      calldatasize\n      sub\n      dup2\n      add\n      swap1\n      tag_7\n      swap2\n      swap1\n      tag_8\n      jump\t// in\n    tag_7:\n      tag_9\n      jump\t// in\n    tag_6:\n      mload(0x40)\n      tag_10\n      swap2\n      swap1\n      tag_11\n      jump\t// in\n    tag_10:\n      mload(0x40)\n      dup1\n      swap2\n      sub\n      swap1\n      return\n        /* \"Bino_Mint/contracts/artifacts/test.sol\":123:200  function setAddress(address addr) public {... */\n    tag_4:\n      tag_12\n      0x04\n      dup1\n      calldatasize\n      sub\n      dup2\n      add\n      swap1\n      tag_13\n      swap2\n      swap1\n      tag_8\n      jump\t// in\n    tag_13:\n      tag_14\n      jump\t// in\n    tag_12:\n      stop\n        /* \"Bino_Mint/contracts/artifacts/test.sol\":206:306  function getInfo(address addr) public view returns (string memory) {... */\n    tag_5:\n      tag_15\n      0x04\n      dup1\n      calldatasize\n      sub\n      dup2\n      add\n      swap1\n      tag_16\n      swap2\n      swap1\n      tag_8\n      jump\t// in\n    tag_16:\n      tag_17\n      jump\t// in\n    tag_15:\n      mload(0x40)\n      tag_18\n      swap2\n      swap1\n      tag_11\n      jump\t// in\n    tag_18:\n      mload(0x40)\n      dup1\n      swap2\n      sub\n      swap1\n      return\n        /* \"Bino_Mint/contracts/artifacts/test.sol\":78:116  mapping (address => string) public map */\n    tag_9:\n      mstore(0x20, 0x00)\n      dup1\n      0x00\n      mstore\n      keccak256(0x00, 0x40)\n      0x00\n      swap2\n      pop\n      swap1\n      pop\n      dup1\n      sload\n      tag_19\n      swap1\n      tag_20\n      jump\t// in\n    tag_19:\n      dup1\n      0x1f\n      add\n      0x20\n      dup1\n      swap2\n      div\n      mul\n      0x20\n      add\n      mload(0x40)\n      swap1\n      dup2\n      add\n      0x40\n      mstore\n      dup1\n      swap3\n      swap2\n      swap1\n      dup2\n      dup2\n      mstore\n      0x20\n      add\n      dup3\n      dup1\n      sload\n      tag_21\n      swap1\n      tag_20\n      jump\t// in\n    tag_21:\n      dup1\n      iszero\n      tag_22\n      jumpi\n      dup1\n      0x1f\n      lt\n      tag_23\n      jumpi\n      0x0100\n      dup1\n      dup4\n      sload\n      div\n      mul\n      dup4\n      mstore\n      swap2\n      0x20\n      add\n      swap2\n      jump(tag_22)\n    tag_23:\n      dup3\n      add\n      swap2\n      swap1\n      0x00\n      mstore\n      keccak256(0x00, 0x20)\n      swap1\n    tag_24:\n      dup2\n      sload\n      dup2\n      mstore\n      swap1\n      0x01\n      add\n      swap1\n      0x20\n      add\n      dup1\n      dup4\n      gt\n      tag_24\n      jumpi\n      dup3\n      swap1\n      sub\n      0x1f\n      and\n      dup3\n      add\n      swap2\n    tag_22:\n      pop\n      pop\n      pop\n      pop\n      pop\n      dup2\n      jump\t// out\n        /* \"Bino_Mint/contracts/artifacts/test.sol\":123:200  function setAddress(address addr) public {... */\n    tag_14:\n        /* \"Bino_Mint/contracts/artifacts/test.sol\":174:193  map[addr] = \"bibki\" */\n      mload(0x40)\n      dup1\n      0x40\n      add\n      0x40\n      mstore\n      dup1\n      0x05\n      dup2\n      mstore\n      0x20\n      add\n      0x6269626b69000000000000000000000000000000000000000000000000000000\n      dup2\n      mstore\n      pop\n        /* \"Bino_Mint/contracts/artifacts/test.sol\":174:177  map */\n      0x00\n        /* \"Bino_Mint/contracts/artifacts/test.sol\":174:183  map[addr] */\n      dup1\n        /* \"Bino_Mint/contracts/artifacts/test.sol\":178:182  addr */\n      dup4\n        /* \"Bino_Mint/contracts/artifacts/test.sol\":174:183  map[addr] */\n      0xffffffffffffffffffffffffffffffffffffffff\n      and\n      0xffffffffffffffffffffffffffffffffffffffff\n      and\n      dup2\n      mstore\n      0x20\n      add\n      swap1\n      dup2\n      mstore\n      0x20\n      add\n      0x00\n      keccak256\n        /* \"Bino_Mint/contracts/artifacts/test.sol\":174:193  map[addr] = \"bibki\" */\n      swap1\n      dup2\n      tag_26\n      swap2\n      swap1\n      tag_27\n      jump\t// in\n    tag_26:\n      pop\n        /* \"Bino_Mint/contracts/artifacts/test.sol\":123:200  function setAddress(address addr) public {... */\n      pop\n      jump\t// out\n        /* \"Bino_Mint/contracts/artifacts/test.sol\":206:306  function getInfo(address addr) public view returns (string memory) {... */\n    tag_17:\n        /* \"Bino_Mint/contracts/artifacts/test.sol\":258:271  string memory */\n      0x60\n        /* \"Bino_Mint/contracts/artifacts/test.sol\":290:293  map */\n      0x00\n        /* \"Bino_Mint/contracts/artifacts/test.sol\":290:299  map[addr] */\n      dup1\n        /* \"Bino_Mint/contracts/artifacts/test.sol\":294:298  addr */\n      dup4\n        /* \"Bino_Mint/contracts/artifacts/test.sol\":290:299  map[addr] */\n      0xffffffffffffffffffffffffffffffffffffffff\n      and\n      0xffffffffffffffffffffffffffffffffffffffff\n      and\n      dup2\n      mstore\n      0x20\n      add\n      swap1\n      dup2\n      mstore\n      0x20\n      add\n      0x00\n      keccak256\n        /* \"Bino_Mint/contracts/artifacts/test.sol\":283:299  return map[addr] */\n      dup1\n      sload\n      tag_29\n      swap1\n      tag_20\n      jump\t// in\n    tag_29:\n      dup1\n      0x1f\n      add\n      0x20\n      dup1\n      swap2\n      div\n      mul\n      0x20\n      add\n      mload(0x40)\n      swap1\n      dup2\n      add\n      0x40\n      mstore\n      dup1\n      swap3\n      swap2\n      swap1\n      dup2\n      dup2\n      mstore\n      0x20\n      add\n      dup3\n      dup1\n      sload\n      tag_30\n      swap1\n      tag_20\n      jump\t// in\n    tag_30:\n      dup1\n      iszero\n      tag_31\n      jumpi\n      dup1\n      0x1f\n      lt\n      tag_32\n      jumpi\n      0x0100\n      dup1\n      dup4\n      sload\n      div\n      mul\n      dup4\n      mstore\n      swap2\n      0x20\n      add\n      swap2\n      jump(tag_31)\n    tag_32:\n      dup3\n      add\n      swap2\n      swap1\n      0x00\n      mstore\n      keccak256(0x00, 0x20)\n      swap1\n    tag_33:\n      dup2\n      sload\n      dup2\n      mstore\n      swap1\n      0x01\n      add\n      swap1\n      0x20\n      add\n      dup1\n      dup4\n      gt\n      tag_33\n      jumpi\n      dup3\n      swap1\n      sub\n      0x1f\n      and\n      dup3\n      add\n      swap2\n    tag_31:\n      pop\n      pop\n      pop\n      pop\n      pop\n      swap1\n      pop\n        /* \"Bino_Mint/contracts/artifacts/test.sol\":206:306  function getInfo(address addr) public view returns (string memory) {... */\n      swap2\n      swap1\n      pop\n      jump\t// out\n        /* \"#utility.yul\":88:205   */\n    tag_35:\n        /* \"#utility.yul\":197:198   */\n      0x00\n        /* \"#utility.yul\":194:195   */\n      dup1\n        /* \"#utility.yul\":187:199   */\n      revert\n        /* \"#utility.yul\":334:460   */\n    tag_37:\n        /* \"#utility.yul\":371:378   */\n      0x00\n        /* \"#utility.yul\":411:453   */\n      0xffffffffffffffffffffffffffffffffffffffff\n        /* \"#utility.yul\":404:409   */\n      dup3\n        /* \"#utility.yul\":400:454   */\n      and\n        /* \"#utility.yul\":389:454   */\n      swap1\n      pop\n        /* \"#utility.yul\":334:460   */\n      swap2\n      swap1\n      pop\n      jump\t// out\n        /* \"#utility.yul\":466:562   */\n    tag_38:\n        /* \"#utility.yul\":503:510   */\n      0x00\n        /* \"#utility.yul\":532:556   */\n      tag_70\n        /* \"#utility.yul\":550:555   */\n      dup3\n        /* \"#utility.yul\":532:556   */\n      tag_37\n      jump\t// in\n    tag_70:\n        /* \"#utility.yul\":521:556   */\n      swap1\n      pop\n        /* \"#utility.yul\":466:562   */\n      swap2\n      swap1\n      pop\n      jump\t// out\n        /* \"#utility.yul\":568:690   */\n    tag_39:\n        /* \"#utility.yul\":641:665   */\n      tag_72\n        /* \"#utility.yul\":659:664   */\n      dup2\n        /* \"#utility.yul\":641:665   */\n      tag_38\n      jump\t// in\n    tag_72:\n        /* \"#utility.yul\":634:639   */\n      dup2\n        /* \"#utility.yul\":631:666   */\n      eq\n        /* \"#utility.yul\":621:684   */\n      tag_73\n      jumpi\n        /* \"#utility.yul\":680:681   */\n      0x00\n        /* \"#utility.yul\":677:678   */\n      dup1\n        /* \"#utility.yul\":670:682   */\n      revert\n        /* \"#utility.yul\":621:684   */\n    tag_73:\n        /* \"#utility.yul\":568:690   */\n      pop\n      jump\t// out\n        /* \"#utility.yul\":696:835   */\n    tag_40:\n        /* \"#utility.yul\":742:747   */\n      0x00\n        /* \"#utility.yul\":780:786   */\n      dup2\n        /* \"#utility.yul\":767:787   */\n      calldataload\n        /* \"#utility.yul\":758:787   */\n      swap1\n      pop\n        /* \"#utility.yul\":796:829   */\n      tag_75\n        /* \"#utility.yul\":823:828   */\n      dup2\n        /* \"#utility.yul\":796:829   */\n      tag_39\n      jump\t// in\n    tag_75:\n        /* \"#utility.yul\":696:835   */\n      swap3\n      swap2\n      pop\n      pop\n      jump\t// out\n        /* \"#utility.yul\":841:1170   */\n    tag_8:\n        /* \"#utility.yul\":900:906   */\n      0x00\n        /* \"#utility.yul\":949:951   */\n      0x20\n        /* \"#utility.yul\":937:946   */\n      dup3\n        /* \"#utility.yul\":928:935   */\n      dup5\n        /* \"#utility.yul\":924:947   */\n      sub\n        /* \"#utility.yul\":920:952   */\n      slt\n        /* \"#utility.yul\":917:1036   */\n      iszero\n      tag_77\n      jumpi\n        /* \"#utility.yul\":955:1034   */\n      tag_78\n      tag_35\n      jump\t// in\n    tag_78:\n        /* \"#utility.yul\":917:1036   */\n    tag_77:\n        /* \"#utility.yul\":1075:1076   */\n      0x00\n        /* \"#utility.yul\":1100:1153   */\n      tag_79\n        /* \"#utility.yul\":1145:1152   */\n      dup5\n        /* \"#utility.yul\":1136:1142   */\n      dup3\n        /* \"#utility.yul\":1125:1134   */\n      dup6\n        /* \"#utility.yul\":1121:1143   */\n      add\n        /* \"#utility.yul\":1100:1153   */\n      tag_40\n      jump\t// in\n    tag_79:\n        /* \"#utility.yul\":1090:1153   */\n      swap2\n      pop\n        /* \"#utility.yul\":1046:1163   */\n      pop\n        /* \"#utility.yul\":841:1170   */\n      swap3\n      swap2\n      pop\n      pop\n      jump\t// out\n        /* \"#utility.yul\":1176:1275   */\n    tag_41:\n        /* \"#utility.yul\":1228:1234   */\n      0x00\n        /* \"#utility.yul\":1262:1267   */\n      dup2\n        /* \"#utility.yul\":1256:1268   */\n      mload\n        /* \"#utility.yul\":1246:1268   */\n      swap1\n      pop\n        /* \"#utility.yul\":1176:1275   */\n      swap2\n      swap1\n      pop\n      jump\t// out\n        /* \"#utility.yul\":1281:1450   */\n    tag_42:\n        /* \"#utility.yul\":1365:1376   */\n      0x00\n        /* \"#utility.yul\":1399:1405   */\n      dup3\n        /* \"#utility.yul\":1394:1397   */\n      dup3\n        /* \"#utility.yul\":1387:1406   */\n      mstore\n        /* \"#utility.yul\":1439:1443   */\n      0x20\n        /* \"#utility.yul\":1434:1437   */\n      dup3\n        /* \"#utility.yul\":1430:1444   */\n      add\n        /* \"#utility.yul\":1415:1444   */\n      swap1\n      pop\n        /* \"#utility.yul\":1281:1450   */\n      swap3\n      swap2\n      pop\n      pop\n      jump\t// out\n        /* \"#utility.yul\":1456:1702   */\n    tag_43:\n        /* \"#utility.yul\":1537:1538   */\n      0x00\n        /* \"#utility.yul\":1547:1660   */\n    tag_83:\n        /* \"#utility.yul\":1561:1567   */\n      dup4\n        /* \"#utility.yul\":1558:1559   */\n      dup2\n        /* \"#utility.yul\":1555:1568   */\n      lt\n        /* \"#utility.yul\":1547:1660   */\n      iszero\n      tag_85\n      jumpi\n        /* \"#utility.yul\":1646:1647   */\n      dup1\n        /* \"#utility.yul\":1641:1644   */\n      dup3\n        /* \"#utility.yul\":1637:1648   */\n      add\n        /* \"#utility.yul\":1631:1649   */\n      mload\n        /* \"#utility.yul\":1627:1628   */\n      dup2\n        /* \"#utility.yul\":1622:1625   */\n      dup5\n        /* \"#utility.yul\":1618:1629   */\n      add\n        /* \"#utility.yul\":1611:1650   */\n      mstore\n        /* \"#utility.yul\":1583:1585   */\n      0x20\n        /* \"#utility.yul\":1580:1581   */\n      dup2\n        /* \"#utility.yul\":1576:1586   */\n      add\n        /* \"#utility.yul\":1571:1586   */\n      swap1\n      pop\n        /* \"#utility.yul\":1547:1660   */\n      jump(tag_83)\n    tag_85:\n        /* \"#utility.yul\":1694:1695   */\n      0x00\n        /* \"#utility.yul\":1685:1691   */\n      dup5\n        /* \"#utility.yul\":1680:1683   */\n      dup5\n        /* \"#utility.yul\":1676:1692   */\n      add\n        /* \"#utility.yul\":1669:1696   */\n      mstore\n        /* \"#utility.yul\":1518:1702   */\n      pop\n        /* \"#utility.yul\":1456:1702   */\n      pop\n      pop\n      pop\n      jump\t// out\n        /* \"#utility.yul\":1708:1810   */\n    tag_44:\n        /* \"#utility.yul\":1749:1755   */\n      0x00\n        /* \"#utility.yul\":1800:1802   */\n      0x1f\n        /* \"#utility.yul\":1796:1803   */\n      not\n        /* \"#utility.yul\":1791:1793   */\n      0x1f\n        /* \"#utility.yul\":1784:1789   */\n      dup4\n        /* \"#utility.yul\":1780:1794   */\n      add\n        /* \"#utility.yul\":1776:1804   */\n      and\n        /* \"#utility.yul\":1766:1804   */\n      swap1\n      pop\n        /* \"#utility.yul\":1708:1810   */\n      swap2\n      swap1\n      pop\n      jump\t// out\n        /* \"#utility.yul\":1816:2193   */\n    tag_45:\n        /* \"#utility.yul\":1904:1907   */\n      0x00\n        /* \"#utility.yul\":1932:1971   */\n      tag_88\n        /* \"#utility.yul\":1965:1970   */\n      dup3\n        /* \"#utility.yul\":1932:1971   */\n      tag_41\n      jump\t// in\n    tag_88:\n        /* \"#utility.yul\":1987:2058   */\n      tag_89\n        /* \"#utility.yul\":2051:2057   */\n      dup2\n        /* \"#utility.yul\":2046:2049   */\n      dup6\n        /* \"#utility.yul\":1987:2058   */\n      tag_42\n      jump\t// in\n    tag_89:\n        /* \"#utility.yul\":1980:2058   */\n      swap4\n      pop\n        /* \"#utility.yul\":2067:2132   */\n      tag_90\n        /* \"#utility.yul\":2125:2131   */\n      dup2\n        /* \"#utility.yul\":2120:2123   */\n      dup6\n        /* \"#utility.yul\":2113:2117   */\n      0x20\n        /* \"#utility.yul\":2106:2111   */\n      dup7\n        /* \"#utility.yul\":2102:2118   */\n      add\n        /* \"#utility.yul\":2067:2132   */\n      tag_43\n      jump\t// in\n    tag_90:\n        /* \"#utility.yul\":2157:2186   */\n      tag_91\n        /* \"#utility.yul\":2179:2185   */\n      dup2\n        /* \"#utility.yul\":2157:2186   */\n      tag_44\n      jump\t// in\n    tag_91:\n        /* \"#utility.yul\":2152:2155   */\n      dup5\n        /* \"#utility.yul\":2148:2187   */\n      add\n        /* \"#utility.yul\":2141:2187   */\n      swap2\n      pop\n        /* \"#utility.yul\":1908:2193   */\n      pop\n        /* \"#utility.yul\":1816:2193   */\n      swap3\n      swap2\n      pop\n      pop\n      jump\t// out\n        /* \"#utility.yul\":2199:2512   */\n    tag_11:\n        /* \"#utility.yul\":2312:2316   */\n      0x00\n        /* \"#utility.yul\":2350:2352   */\n      0x20\n        /* \"#utility.yul\":2339:2348   */\n      dup3\n        /* \"#utility.yul\":2335:2353   */\n      add\n        /* \"#utility.yul\":2327:2353   */\n      swap1\n      pop\n        /* \"#utility.yul\":2399:2408   */\n      dup2\n        /* \"#utility.yul\":2393:2397   */\n      dup2\n        /* \"#utility.yul\":2389:2409   */\n      sub\n        /* \"#utility.yul\":2385:2386   */\n      0x00\n        /* \"#utility.yul\":2374:2383   */\n      dup4\n        /* \"#utility.yul\":2370:2387   */\n      add\n        /* \"#utility.yul\":2363:2410   */\n      mstore\n        /* \"#utility.yul\":2427:2505   */\n      tag_93\n        /* \"#utility.yul\":2500:2504   */\n      dup2\n        /* \"#utility.yul\":2491:2497   */\n      dup5\n        /* \"#utility.yul\":2427:2505   */\n      tag_45\n      jump\t// in\n    tag_93:\n        /* \"#utility.yul\":2419:2505   */\n      swap1\n      pop\n        /* \"#utility.yul\":2199:2512   */\n      swap3\n      swap2\n      pop\n      pop\n      jump\t// out\n        /* \"#utility.yul\":2518:2698   */\n    tag_46:\n        /* \"#utility.yul\":2566:2643   */\n      0x4e487b7100000000000000000000000000000000000000000000000000000000\n        /* \"#utility.yul\":2563:2564   */\n      0x00\n        /* \"#utility.yul\":2556:2644   */\n      mstore\n        /* \"#utility.yul\":2663:2667   */\n      0x22\n        /* \"#utility.yul\":2660:2661   */\n      0x04\n        /* \"#utility.yul\":2653:2668   */\n      mstore\n        /* \"#utility.yul\":2687:2691   */\n      0x24\n        /* \"#utility.yul\":2684:2685   */\n      0x00\n        /* \"#utility.yul\":2677:2692   */\n      revert\n        /* \"#utility.yul\":2704:3024   */\n    tag_20:\n        /* \"#utility.yul\":2748:2754   */\n      0x00\n        /* \"#utility.yul\":2785:2786   */\n      0x02\n        /* \"#utility.yul\":2779:2783   */\n      dup3\n        /* \"#utility.yul\":2775:2787   */\n      div\n        /* \"#utility.yul\":2765:2787   */\n      swap1\n      pop\n        /* \"#utility.yul\":2832:2833   */\n      0x01\n        /* \"#utility.yul\":2826:2830   */\n      dup3\n        /* \"#utility.yul\":2822:2834   */\n      and\n        /* \"#utility.yul\":2853:2871   */\n      dup1\n        /* \"#utility.yul\":2843:2924   */\n      tag_96\n      jumpi\n        /* \"#utility.yul\":2909:2913   */\n      0x7f\n        /* \"#utility.yul\":2901:2907   */\n      dup3\n        /* \"#utility.yul\":2897:2914   */\n      and\n        /* \"#utility.yul\":2887:2914   */\n      swap2\n      pop\n        /* \"#utility.yul\":2843:2924   */\n    tag_96:\n        /* \"#utility.yul\":2971:2973   */\n      0x20\n        /* \"#utility.yul\":2963:2969   */\n      dup3\n        /* \"#utility.yul\":2960:2974   */\n      lt\n        /* \"#utility.yul\":2940:2958   */\n      dup2\n        /* \"#utility.yul\":2937:2975   */\n      sub\n        /* \"#utility.yul\":2934:3018   */\n      tag_97\n      jumpi\n        /* \"#utility.yul\":2990:3008   */\n      tag_98\n      tag_46\n      jump\t// in\n    tag_98:\n        /* \"#utility.yul\":2934:3018   */\n    tag_97:\n        /* \"#utility.yul\":2755:3024   */\n      pop\n        /* \"#utility.yul\":2704:3024   */\n      swap2\n      swap1\n      pop\n      jump\t// out\n        /* \"#utility.yul\":3030:3210   */\n    tag_47:\n        /* \"#utility.yul\":3078:3155   */\n      0x4e487b7100000000000000000000000000000000000000000000000000000000\n        /* \"#utility.yul\":3075:3076   */\n      0x00\n        /* \"#utility.yul\":3068:3156   */\n      mstore\n        /* \"#utility.yul\":3175:3179   */\n      0x41\n        /* \"#utility.yul\":3172:3173   */\n      0x04\n        /* \"#utility.yul\":3165:3180   */\n      mstore\n        /* \"#utility.yul\":3199:3203   */\n      0x24\n        /* \"#utility.yul\":3196:3197   */\n      0x00\n        /* \"#utility.yul\":3189:3204   */\n      revert\n        /* \"#utility.yul\":3216:3357   */\n    tag_48:\n        /* \"#utility.yul\":3265:3269   */\n      0x00\n        /* \"#utility.yul\":3288:3291   */\n      dup2\n        /* \"#utility.yul\":3280:3291   */\n      swap1\n      pop\n        /* \"#utility.yul\":3311:3314   */\n      dup2\n        /* \"#utility.yul\":3308:3309   */\n      0x00\n        /* \"#utility.yul\":3301:3315   */\n      mstore\n        /* \"#utility.yul\":3345:3349   */\n      0x20\n        /* \"#utility.yul\":3342:3343   */\n      0x00\n        /* \"#utility.yul\":3332:3350   */\n      keccak256\n        /* \"#utility.yul\":3324:3350   */\n      swap1\n      pop\n        /* \"#utility.yul\":3216:3357   */\n      swap2\n      swap1\n      pop\n      jump\t// out\n        /* \"#utility.yul\":3363:3456   */\n    tag_49:\n        /* \"#utility.yul\":3400:3406   */\n      0x00\n        /* \"#utility.yul\":3447:3449   */\n      0x20\n        /* \"#utility.yul\":3442:3444   */\n      0x1f\n        /* \"#utility.yul\":3435:3440   */\n      dup4\n        /* \"#utility.yul\":3431:3445   */\n      add\n        /* \"#utility.yul\":3427:3450   */\n      div\n        /* \"#utility.yul\":3417:3450   */\n      swap1\n      pop\n        /* \"#utility.yul\":3363:3456   */\n      swap2\n      swap1\n      pop\n      jump\t// out\n        /* \"#utility.yul\":3462:3569   */\n    tag_50:\n        /* \"#utility.yul\":3506:3514   */\n      0x00\n        /* \"#utility.yul\":3556:3561   */\n      dup3\n        /* \"#utility.yul\":3550:3554   */\n      dup3\n        /* \"#utility.yul\":3546:3562   */\n      shl\n        /* \"#utility.yul\":3525:3562   */\n      swap1\n      pop\n        /* \"#utility.yul\":3462:3569   */\n      swap3\n      swap2\n      pop\n      pop\n      jump\t// out\n        /* \"#utility.yul\":3575:3968   */\n    tag_51:\n        /* \"#utility.yul\":3644:3650   */\n      0x00\n        /* \"#utility.yul\":3694:3695   */\n      0x08\n        /* \"#utility.yul\":3682:3692   */\n      dup4\n        /* \"#utility.yul\":3678:3696   */\n      mul\n        /* \"#utility.yul\":3717:3814   */\n      tag_104\n        /* \"#utility.yul\":3747:3813   */\n      0xffffffffffffffffffffffffffffffffffffffffffffffffffffffffffffffff\n        /* \"#utility.yul\":3736:3745   */\n      dup3\n        /* \"#utility.yul\":3717:3814   */\n      tag_50\n      jump\t// in\n    tag_104:\n        /* \"#utility.yul\":3835:3874   */\n      tag_105\n        /* \"#utility.yul\":3865:3873   */\n      dup7\n        /* \"#utility.yul\":3854:3863   */\n      dup4\n        /* \"#utility.yul\":3835:3874   */\n      tag_50\n      jump\t// in\n    tag_105:\n        /* \"#utility.yul\":3823:3874   */\n      swap6\n      pop\n        /* \"#utility.yul\":3907:3911   */\n      dup1\n        /* \"#utility.yul\":3903:3912   */\n      not\n        /* \"#utility.yul\":3896:3901   */\n      dup5\n        /* \"#utility.yul\":3892:3913   */\n      and\n        /* \"#utility.yul\":3883:3913   */\n      swap4\n      pop\n        /* \"#utility.yul\":3956:3960   */\n      dup1\n        /* \"#utility.yul\":3946:3954   */\n      dup7\n        /* \"#utility.yul\":3942:3961   */\n      and\n        /* \"#utility.yul\":3935:3940   */\n      dup5\n        /* \"#utility.yul\":3932:3962   */\n      or\n        /* \"#utility.yul\":3922:3962   */\n      swap3\n      pop\n        /* \"#utility.yul\":3651:3968   */\n      pop\n      pop\n        /* \"#utility.yul\":3575:3968   */\n      swap4\n      swap3\n      pop\n      pop\n      pop\n      jump\t// out\n        /* \"#utility.yul\":3974:4051   */\n    tag_52:\n        /* \"#utility.yul\":4011:4018   */\n      0x00\n        /* \"#utility.yul\":4040:4045   */\n      dup2\n        /* \"#utility.yul\":4029:4045   */\n      swap1\n      pop\n        /* \"#utility.yul\":3974:4051   */\n      swap2\n      swap1\n      pop\n      jump\t// out\n        /* \"#utility.yul\":4057:4117   */\n    tag_53:\n        /* \"#utility.yul\":4085:4088   */\n      0x00\n        /* \"#utility.yul\":4106:4111   */\n      dup2\n        /* \"#utility.yul\":4099:4111   */\n      swap1\n      pop\n        /* \"#utility.yul\":4057:4117   */\n      swap2\n      swap1\n      pop\n      jump\t// out\n        /* \"#utility.yul\":4123:4265   */\n    tag_54:\n        /* \"#utility.yul\":4173:4182   */\n      0x00\n        /* \"#utility.yul\":4206:4259   */\n      tag_109\n        /* \"#utility.yul\":4224:4258   */\n      tag_110\n        /* \"#utility.yul\":4233:4257   */\n      tag_111\n        /* \"#utility.yul\":4251:4256   */\n      dup5\n        /* \"#utility.yul\":4233:4257   */\n      tag_52\n      jump\t// in\n    tag_111:\n        /* \"#utility.yul\":4224:4258   */\n      tag_53\n      jump\t// in\n    tag_110:\n        /* \"#utility.yul\":4206:4259   */\n      tag_52\n      jump\t// in\n    tag_109:\n        /* \"#utility.yul\":4193:4259   */\n      swap1\n      pop\n        /* \"#utility.yul\":4123:4265   */\n      swap2\n      swap1\n      pop\n      jump\t// out\n        /* \"#utility.yul\":4271:4346   */\n    tag_55:\n        /* \"#utility.yul\":4314:4317   */\n      0x00\n        /* \"#utility.yul\":4335:4340   */\n      dup2\n        /* \"#utility.yul\":4328:4340   */\n      swap1\n      pop\n        /* \"#utility.yul\":4271:4346   */\n      swap2\n      swap1\n      pop\n      jump\t// out\n        /* \"#utility.yul\":4352:4621   */\n    tag_56:\n        /* \"#utility.yul\":4462:4501   */\n      tag_114\n        /* \"#utility.yul\":4493:4500   */\n      dup4\n        /* \"#utility.yul\":4462:4501   */\n      tag_54\n      jump\t// in\n    tag_114:\n        /* \"#utility.yul\":4523:4614   */\n      tag_115\n        /* \"#utility.yul\":4572:4613   */\n      tag_116\n        /* \"#utility.yul\":4596:4612   */\n      dup3\n        /* \"#utility.yul\":4572:4613   */\n      tag_55\n      jump\t// in\n    tag_116:\n        /* \"#utility.yul\":4564:4570   */\n      dup5\n        /* \"#utility.yul\":4557:4561   */\n      dup5\n        /* \"#utility.yul\":4551:4562   */\n      sload\n        /* \"#utility.yul\":4523:4614   */\n      tag_51\n      jump\t// in\n    tag_115:\n        /* \"#utility.yul\":4517:4521   */\n      dup3\n        /* \"#utility.yul\":4510:4615   */\n      sstore\n        /* \"#utility.yul\":4428:4621   */\n      pop\n        /* \"#utility.yul\":4352:4621   */\n      pop\n      pop\n      pop\n      jump\t// out\n        /* \"#utility.yul\":4627:4700   */\n    tag_57:\n        /* \"#utility.yul\":4672:4675   */\n      0x00\n        /* \"#utility.yul\":4627:4700   */\n      swap1\n      jump\t// out\n        /* \"#utility.yul\":4706:4895   */\n    tag_58:\n        /* \"#utility.yul\":4783:4815   */\n      tag_119\n      tag_57\n      jump\t// in\n    tag_119:\n        /* \"#utility.yul\":4824:4889   */\n      tag_120\n        /* \"#utility.yul\":4882:4888   */\n      dup2\n        /* \"#utility.yul\":4874:4880   */\n      dup5\n        /* \"#utility.yul\":4868:4872   */\n      dup5\n        /* \"#utility.yul\":4824:4889   */\n      tag_56\n      jump\t// in\n    tag_120:\n        /* \"#utility.yul\":4759:4895   */\n      pop\n        /* \"#utility.yul\":4706:4895   */\n      pop\n      pop\n      jump\t// out\n        /* \"#utility.yul\":4901:5087   */\n    tag_59:\n        /* \"#utility.yul\":4961:5081   */\n    tag_122:\n        /* \"#utility.yul\":4978:4981   */\n      dup2\n        /* \"#utility.yul\":4971:4976   */\n      dup2\n        /* \"#utility.yul\":4968:4982   */\n      lt\n        /* \"#utility.yul\":4961:5081   */\n      iszero\n      tag_124\n      jumpi\n        /* \"#utility.yul\":5032:5071   */\n      tag_125\n        /* \"#utility.yul\":5069:5070   */\n      0x00\n        /* \"#utility.yul\":5062:5067   */\n      dup3\n        /* \"#utility.yul\":5032:5071   */\n      tag_58\n      jump\t// in\n    tag_125:\n        /* \"#utility.yul\":5005:5006   */\n      0x01\n        /* \"#utility.yul\":4998:5003   */\n      dup2\n        /* \"#utility.yul\":4994:5007   */\n      add\n        /* \"#utility.yul\":4985:5007   */\n      swap1\n      pop\n        /* \"#utility.yul\":4961:5081   */\n      jump(tag_122)\n    tag_124:\n        /* \"#utility.yul\":4901:5087   */\n      pop\n      pop\n      jump\t// out\n        /* \"#utility.yul\":5093:5636   */\n    tag_60:\n        /* \"#utility.yul\":5194:5196   */\n      0x1f\n        /* \"#utility.yul\":5189:5192   */\n      dup3\n        /* \"#utility.yul\":5186:5197   */\n      gt\n        /* \"#utility.yul\":5183:5629   */\n      iszero\n      tag_127\n      jumpi\n        /* \"#utility.yul\":5228:5266   */\n      tag_128\n        /* \"#utility.yul\":5260:5265   */\n      dup2\n        /* \"#utility.yul\":5228:5266   */\n      tag_48\n      jump\t// in\n    tag_128:\n        /* \"#utility.yul\":5312:5341   */\n      tag_129\n        /* \"#utility.yul\":5330:5340   */\n      dup5\n        /* \"#utility.yul\":5312:5341   */\n      tag_49\n      jump\t// in\n    tag_129:\n        /* \"#utility.yul\":5302:5310   */\n      dup2\n        /* \"#utility.yul\":5298:5342   */\n      add\n        /* \"#utility.yul\":5495:5497   */\n      0x20\n        /* \"#utility.yul\":5483:5493   */\n      dup6\n        /* \"#utility.yul\":5480:5498   */\n      lt\n        /* \"#utility.yul\":5477:5526   */\n      iszero\n      tag_130\n      jumpi\n        /* \"#utility.yul\":5516:5524   */\n      dup2\n        /* \"#utility.yul\":5501:5524   */\n      swap1\n      pop\n        /* \"#utility.yul\":5477:5526   */\n    tag_130:\n        /* \"#utility.yul\":5539:5619   */\n      tag_131\n        /* \"#utility.yul\":5595:5617   */\n      tag_132\n        /* \"#utility.yul\":5613:5616   */\n      dup6\n        /* \"#utility.yul\":5595:5617   */\n      tag_49\n      jump\t// in\n    tag_132:\n        /* \"#utility.yul\":5585:5593   */\n      dup4\n        /* \"#utility.yul\":5581:5618   */\n      add\n        /* \"#utility.yul\":5568:5579   */\n      dup3\n        /* \"#utility.yul\":5539:5619   */\n      tag_59\n      jump\t// in\n    tag_131:\n        /* \"#utility.yul\":5198:5629   */\n      pop\n      pop\n        /* \"#utility.yul\":5183:5629   */\n    tag_127:\n        /* \"#utility.yul\":5093:5636   */\n      pop\n      pop\n      pop\n      jump\t// out\n        /* \"#utility.yul\":5642:5759   */\n    tag_61:\n        /* \"#utility.yul\":5696:5704   */\n      0x00\n        /* \"#utility.yul\":5746:5751   */\n      dup3\n        /* \"#utility.yul\":5740:5744   */\n      dup3\n        /* \"#utility.yul\":5736:5752   */\n      shr\n        /* \"#utility.yul\":5715:5752   */\n      swap1\n      pop\n        /* \"#utility.yul\":5642:5759   */\n      swap3\n      swap2\n      pop\n      pop\n      jump\t// out\n        /* \"#utility.yul\":5765:5934   */\n    tag_62:\n        /* \"#utility.yul\":5809:5815   */\n      0x00\n        /* \"#utility.yul\":5842:5893   */\n      tag_135\n        /* \"#utility.yul\":5890:5891   */\n      0x00\n        /* \"#utility.yul\":5886:5892   */\n      not\n        /* \"#utility.yul\":5878:5883   */\n      dup5\n        /* \"#utility.yul\":5875:5876   */\n      0x08\n        /* \"#utility.yul\":5871:5884   */\n      mul\n        /* \"#utility.yul\":5842:5893   */\n      tag_61\n      jump\t// in\n    tag_135:\n        /* \"#utility.yul\":5838:5894   */\n      not\n        /* \"#utility.yul\":5923:5927   */\n      dup1\n        /* \"#utility.yul\":5917:5921   */\n      dup4\n        /* \"#utility.yul\":5913:5928   */\n      and\n        /* \"#utility.yul\":5903:5928   */\n      swap2\n      pop\n        /* \"#utility.yul\":5816:5934   */\n      pop\n        /* \"#utility.yul\":5765:5934   */\n      swap3\n      swap2\n      pop\n      pop\n      jump\t// out\n        /* \"#utility.yul\":5939:6234   */\n    tag_63:\n        /* \"#utility.yul\":6015:6019   */\n      0x00\n        /* \"#utility.yul\":6161:6190   */\n      tag_137\n        /* \"#utility.yul\":6186:6189   */\n      dup4\n        /* \"#utility.yul\":6180:6184   */\n      dup4\n        /* \"#utility.yul\":6161:6190   */\n      tag_62\n      jump\t// in\n    tag_137:\n        /* \"#utility.yul\":6153:6190   */\n      swap2\n      pop\n        /* \"#utility.yul\":6223:6226   */\n      dup3\n        /* \"#utility.yul\":6220:6221   */\n      0x02\n        /* \"#utility.yul\":6216:6227   */\n      mul\n        /* \"#utility.yul\":6210:6214   */\n      dup3\n        /* \"#utility.yul\":6207:6228   */\n      or\n        /* \"#utility.yul\":6199:6228   */\n      swap1\n      pop\n        /* \"#utility.yul\":5939:6234   */\n      swap3\n      swap2\n      pop\n      pop\n      jump\t// out\n        /* \"#utility.yul\":6239:7634   */\n    tag_27:\n        /* \"#utility.yul\":6356:6393   */\n      tag_139\n        /* \"#utility.yul\":6389:6392   */\n      dup3\n        /* \"#utility.yul\":6356:6393   */\n      tag_41\n      jump\t// in\n    tag_139:\n        /* \"#utility.yul\":6458:6476   */\n      0xffffffffffffffff\n        /* \"#utility.yul\":6450:6456   */\n      dup2\n        /* \"#utility.yul\":6447:6477   */\n      gt\n        /* \"#utility.yul\":6444:6500   */\n      iszero\n      tag_140\n      jumpi\n        /* \"#utility.yul\":6480:6498   */\n      tag_141\n      tag_47\n      jump\t// in\n    tag_141:\n        /* \"#utility.yul\":6444:6500   */\n    tag_140:\n        /* \"#utility.yul\":6524:6562   */\n      tag_142\n        /* \"#utility.yul\":6556:6560   */\n      dup3\n        /* \"#utility.yul\":6550:6561   */\n      sload\n        /* \"#utility.yul\":6524:6562   */\n      tag_20\n      jump\t// in\n    tag_142:\n        /* \"#utility.yul\":6609:6676   */\n      tag_143\n        /* \"#utility.yul\":6669:6675   */\n      dup3\n        /* \"#utility.yul\":6661:6667   */\n      dup3\n        /* \"#utility.yul\":6655:6659   */\n      dup6\n        /* \"#utility.yul\":6609:6676   */\n      tag_60\n      jump\t// in\n    tag_143:\n        /* \"#utility.yul\":6703:6704   */\n      0x00\n        /* \"#utility.yul\":6727:6731   */\n      0x20\n        /* \"#utility.yul\":6714:6731   */\n      swap1\n      pop\n        /* \"#utility.yul\":6759:6761   */\n      0x1f\n        /* \"#utility.yul\":6751:6757   */\n      dup4\n        /* \"#utility.yul\":6748:6762   */\n      gt\n        /* \"#utility.yul\":6776:6777   */\n      0x01\n        /* \"#utility.yul\":6771:7389   */\n      dup2\n      eq\n      tag_145\n      jumpi\n        /* \"#utility.yul\":7433:7434   */\n      0x00\n        /* \"#utility.yul\":7450:7456   */\n      dup5\n        /* \"#utility.yul\":7447:7524   */\n      iszero\n      tag_146\n      jumpi\n        /* \"#utility.yul\":7499:7508   */\n      dup3\n        /* \"#utility.yul\":7494:7497   */\n      dup8\n        /* \"#utility.yul\":7490:7509   */\n      add\n        /* \"#utility.yul\":7484:7510   */\n      mload\n        /* \"#utility.yul\":7475:7510   */\n      swap1\n      pop\n        /* \"#utility.yul\":7447:7524   */\n    tag_146:\n        /* \"#utility.yul\":7550:7617   */\n      tag_147\n        /* \"#utility.yul\":7610:7616   */\n      dup6\n        /* \"#utility.yul\":7603:7608   */\n      dup3\n        /* \"#utility.yul\":7550:7617   */\n      tag_63\n      jump\t// in\n    tag_147:\n        /* \"#utility.yul\":7544:7548   */\n      dup7\n        /* \"#utility.yul\":7537:7618   */\n      sstore\n        /* \"#utility.yul\":7406:7628   */\n      pop\n        /* \"#utility.yul\":6741:7628   */\n      jump(tag_144)\n        /* \"#utility.yul\":6771:7389   */\n    tag_145:\n        /* \"#utility.yul\":6823:6827   */\n      0x1f\n        /* \"#utility.yul\":6819:6828   */\n      not\n        /* \"#utility.yul\":6811:6817   */\n      dup5\n        /* \"#utility.yul\":6807:6829   */\n      and\n        /* \"#utility.yul\":6857:6894   */\n      tag_148\n        /* \"#utility.yul\":6889:6893   */\n      dup7\n        /* \"#utility.yul\":6857:6894   */\n      tag_48\n      jump\t// in\n    tag_148:\n        /* \"#utility.yul\":6916:6917   */\n      0x00\n        /* \"#utility.yul\":6930:7138   */\n    tag_149:\n        /* \"#utility.yul\":6944:6951   */\n      dup3\n        /* \"#utility.yul\":6941:6942   */\n      dup2\n        /* \"#utility.yul\":6938:6952   */\n      lt\n        /* \"#utility.yul\":6930:7138   */\n      iszero\n      tag_151\n      jumpi\n        /* \"#utility.yul\":7023:7032   */\n      dup5\n        /* \"#utility.yul\":7018:7021   */\n      dup10\n        /* \"#utility.yul\":7014:7033   */\n      add\n        /* \"#utility.yul\":7008:7034   */\n      mload\n        /* \"#utility.yul\":7000:7006   */\n      dup3\n        /* \"#utility.yul\":6993:7035   */\n      sstore\n        /* \"#utility.yul\":7074:7075   */\n      0x01\n        /* \"#utility.yul\":7066:7072   */\n      dup3\n        /* \"#utility.yul\":7062:7076   */\n      add\n        /* \"#utility.yul\":7052:7076   */\n      swap2\n      pop\n        /* \"#utility.yul\":7121:7123   */\n      0x20\n        /* \"#utility.yul\":7110:7119   */\n      dup6\n        /* \"#utility.yul\":7106:7124   */\n      add\n        /* \"#utility.yul\":7093:7124   */\n      swap5\n      pop\n        /* \"#utility.yul\":6967:6971   */\n      0x20\n        /* \"#utility.yul\":6964:6965   */\n      dup2\n        /* \"#utility.yul\":6960:6972   */\n      add\n        /* \"#utility.yul\":6955:6972   */\n      swap1\n      pop\n        /* \"#utility.yul\":6930:7138   */\n      jump(tag_149)\n    tag_151:\n        /* \"#utility.yul\":7166:7172   */\n      dup7\n        /* \"#utility.yul\":7157:7164   */\n      dup4\n        /* \"#utility.yul\":7154:7173   */\n      lt\n        /* \"#utility.yul\":7151:7330   */\n      iszero\n      tag_152\n      jumpi\n        /* \"#utility.yul\":7224:7233   */\n      dup5\n        /* \"#utility.yul\":7219:7222   */\n      dup10\n        /* \"#utility.yul\":7215:7234   */\n      add\n        /* \"#utility.yul\":7209:7235   */\n      mload\n        /* \"#utility.yul\":7267:7315   */\n      tag_153\n        /* \"#utility.yul\":7309:7313   */\n      0x1f\n        /* \"#utility.yul\":7301:7307   */\n      dup10\n        /* \"#utility.yul\":7297:7314   */\n      and\n        /* \"#utility.yul\":7286:7295   */\n      dup3\n        /* \"#utility.yul\":7267:7315   */\n      tag_62\n      jump\t// in\n    tag_153:\n        /* \"#utility.yul\":7259:7265   */\n      dup4\n        /* \"#utility.yul\":7252:7316   */\n      sstore\n        /* \"#utility.yul\":7174:7330   */\n      pop\n        /* \"#utility.yul\":7151:7330   */\n    tag_152:\n        /* \"#utility.yul\":7376:7377   */\n      0x01\n        /* \"#utility.yul\":7372:7373   */\n      0x02\n        /* \"#utility.yul\":7364:7370   */\n      dup9\n        /* \"#utility.yul\":7360:7374   */\n      mul\n        /* \"#utility.yul\":7356:7378   */\n      add\n        /* \"#utility.yul\":7350:7354   */\n      dup9\n        /* \"#utility.yul\":7343:7379   */\n      sstore\n        /* \"#utility.yul\":6778:7389   */\n      pop\n      pop\n      pop\n        /* \"#utility.yul\":6741:7628   */\n    tag_144:\n      pop\n        /* \"#utility.yul\":6331:7634   */\n      pop\n      pop\n      pop\n        /* \"#utility.yul\":6239:7634   */\n      pop\n      pop\n      jump\t// out\n\n    auxdata: 0xa26469706673582212207e97272be3df4cde3b0df63aabb3bd43718a3a1b20e4ee123dc79148e976f62f64736f6c63430008160033\n}\n",
				"bytecode": {
					"linkReferences": {},
					"object": "608060405234801561000f575f80fd5b5061070f8061001d5f395ff3fe608060405234801561000f575f80fd5b506004361061003f575f3560e01c8063b721ef6e14610043578063e30081a014610073578063ffdd5cf11461008f575b5f80fd5b61005d60048036038101906100589190610305565b6100bf565b60405161006a91906103ba565b60405180910390f35b61008d60048036038101906100889190610305565b610159565b005b6100a960048036038101906100a49190610305565b6101db565b6040516100b691906103ba565b60405180910390f35b5f602052805f5260405f205f9150905080546100da90610407565b80601f016020809104026020016040519081016040528092919081815260200182805461010690610407565b80156101515780601f1061012857610100808354040283529160200191610151565b820191905f5260205f20905b81548152906001019060200180831161013457829003601f168201915b505050505081565b6040518060400160405280600581526020017f6269626b690000000000000000000000000000000000000000000000000000008152505f808373ffffffffffffffffffffffffffffffffffffffff1673ffffffffffffffffffffffffffffffffffffffff1681526020019081526020015f2090816101d7919061060a565b5050565b60605f808373ffffffffffffffffffffffffffffffffffffffff1673ffffffffffffffffffffffffffffffffffffffff1681526020019081526020015f20805461022490610407565b80601f016020809104026020016040519081016040528092919081815260200182805461025090610407565b801561029b5780601f106102725761010080835404028352916020019161029b565b820191905f5260205f20905b81548152906001019060200180831161027e57829003601f168201915b50505050509050919050565b5f80fd5b5f73ffffffffffffffffffffffffffffffffffffffff82169050919050565b5f6102d4826102ab565b9050919050565b6102e4816102ca565b81146102ee575f80fd5b50565b5f813590506102ff816102db565b92915050565b5f6020828403121561031a576103196102a7565b5b5f610327848285016102f1565b91505092915050565b5f81519050919050565b5f82825260208201905092915050565b5f5b8381101561036757808201518184015260208101905061034c565b5f8484015250505050565b5f601f19601f8301169050919050565b5f61038c82610330565b610396818561033a565b93506103a681856020860161034a565b6103af81610372565b840191505092915050565b5f6020820190508181035f8301526103d28184610382565b905092915050565b7f4e487b71000000000000000000000000000000000000000000000000000000005f52602260045260245ffd5b5f600282049050600182168061041e57607f821691505b602082108103610431576104306103da565b5b50919050565b7f4e487b71000000000000000000000000000000000000000000000000000000005f52604160045260245ffd5b5f819050815f5260205f209050919050565b5f6020601f8301049050919050565b5f82821b905092915050565b5f600883026104c07fffffffffffffffffffffffffffffffffffffffffffffffffffffffffffffffff82610485565b6104ca8683610485565b95508019841693508086168417925050509392505050565b5f819050919050565b5f819050919050565b5f61050e610509610504846104e2565b6104eb565b6104e2565b9050919050565b5f819050919050565b610527836104f4565b61053b61053382610515565b848454610491565b825550505050565b5f90565b61054f610543565b61055a81848461051e565b505050565b5b8181101561057d576105725f82610547565b600181019050610560565b5050565b601f8211156105c25761059381610464565b61059c84610476565b810160208510156105ab578190505b6105bf6105b785610476565b83018261055f565b50505b505050565b5f82821c905092915050565b5f6105e25f19846008026105c7565b1980831691505092915050565b5f6105fa83836105d3565b9150826002028217905092915050565b61061382610330565b67ffffffffffffffff81111561062c5761062b610437565b5b6106368254610407565b610641828285610581565b5f60209050601f831160018114610672575f8415610660578287015190505b61066a85826105ef565b8655506106d1565b601f19841661068086610464565b5f5b828110156106a757848901518255600182019150602085019450602081019050610682565b868310156106c457848901516106c0601f8916826105d3565b8355505b6001600288020188555050505b50505050505056fea26469706673582212207e97272be3df4cde3b0df63aabb3bd43718a3a1b20e4ee123dc79148e976f62f64736f6c63430008160033",
					"opcodes": "PUSH1 0x80 PUSH1 0x40 MSTORE CALLVALUE DUP1 ISZERO PUSH2 0xF JUMPI PUSH0 DUP1 REVERT JUMPDEST POP PUSH2 0x70F DUP1 PUSH2 0x1D PUSH0 CODECOPY PUSH0 RETURN INVALID PUSH1 0x80 PUSH1 0x40 MSTORE CALLVALUE DUP1 ISZERO PUSH2 0xF JUMPI PUSH0 DUP1 REVERT JUMPDEST POP PUSH1 0x4 CALLDATASIZE LT PUSH2 0x3F JUMPI PUSH0 CALLDATALOAD PUSH1 0xE0 SHR DUP1 PUSH4 0xB721EF6E EQ PUSH2 0x43 JUMPI DUP1 PUSH4 0xE30081A0 EQ PUSH2 0x73 JUMPI DUP1 PUSH4 0xFFDD5CF1 EQ PUSH2 0x8F JUMPI JUMPDEST PUSH0 DUP1 REVERT JUMPDEST PUSH2 0x5D PUSH1 0x4 DUP1 CALLDATASIZE SUB DUP2 ADD SWAP1 PUSH2 0x58 SWAP2 SWAP1 PUSH2 0x305 JUMP JUMPDEST PUSH2 0xBF JUMP JUMPDEST PUSH1 0x40 MLOAD PUSH2 0x6A SWAP2 SWAP1 PUSH2 0x3BA JUMP JUMPDEST PUSH1 0x40 MLOAD DUP1 SWAP2 SUB SWAP1 RETURN JUMPDEST PUSH2 0x8D PUSH1 0x4 DUP1 CALLDATASIZE SUB DUP2 ADD SWAP1 PUSH2 0x88 SWAP2 SWAP1 PUSH2 0x305 JUMP JUMPDEST PUSH2 0x159 JUMP JUMPDEST STOP JUMPDEST PUSH2 0xA9 PUSH1 0x4 DUP1 CALLDATASIZE SUB DUP2 ADD SWAP1 PUSH2 0xA4 SWAP2 SWAP1 PUSH2 0x305 JUMP JUMPDEST PUSH2 0x1DB JUMP JUMPDEST PUSH1 0x40 MLOAD PUSH2 0xB6 SWAP2 SWAP1 PUSH2 0x3BA JUMP JUMPDEST PUSH1 0x40 MLOAD DUP1 SWAP2 SUB SWAP1 RETURN JUMPDEST PUSH0 PUSH1 0x20 MSTORE DUP1 PUSH0 MSTORE PUSH1 0x40 PUSH0 KECCAK256 PUSH0 SWAP2 POP SWAP1 POP DUP1 SLOAD PUSH2 0xDA SWAP1 PUSH2 0x407 JUMP JUMPDEST DUP1 PUSH1 0x1F ADD PUSH1 0x20 DUP1 SWAP2 DIV MUL PUSH1 0x20 ADD PUSH1 0x40 MLOAD SWAP1 DUP2 ADD PUSH1 0x40 MSTORE DUP1 SWAP3 SWAP2 SWAP1 DUP2 DUP2 MSTORE PUSH1 0x20 ADD DUP3 DUP1 SLOAD PUSH2 0x106 SWAP1 PUSH2 0x407 JUMP JUMPDEST DUP1 ISZERO PUSH2 0x151 JUMPI DUP1 PUSH1 0x1F LT PUSH2 0x128 JUMPI PUSH2 0x100 DUP1 DUP4 SLOAD DIV MUL DUP4 MSTORE SWAP2 PUSH1 0x20 ADD SWAP2 PUSH2 0x151 JUMP JUMPDEST DUP3 ADD SWAP2 SWAP1 PUSH0 MSTORE PUSH1 0x20 PUSH0 KECCAK256 SWAP1 JUMPDEST DUP2 SLOAD DUP2 MSTORE SWAP1 PUSH1 0x1 ADD SWAP1 PUSH1 0x20 ADD DUP1 DUP4 GT PUSH2 0x134 JUMPI DUP3 SWAP1 SUB PUSH1 0x1F AND DUP3 ADD SWAP2 JUMPDEST POP POP POP POP POP DUP2 JUMP JUMPDEST PUSH1 0x40 MLOAD DUP1 PUSH1 0x40 ADD PUSH1 0x40 MSTORE DUP1 PUSH1 0x5 DUP2 MSTORE PUSH1 0x20 ADD PUSH32 0x6269626B69000000000000000000000000000000000000000000000000000000 DUP2 MSTORE POP PUSH0 DUP1 DUP4 PUSH20 0xFFFFFFFFFFFFFFFFFFFFFFFFFFFFFFFFFFFFFFFF AND PUSH20 0xFFFFFFFFFFFFFFFFFFFFFFFFFFFFFFFFFFFFFFFF AND DUP2 MSTORE PUSH1 0x20 ADD SWAP1 DUP2 MSTORE PUSH1 0x20 ADD PUSH0 KECCAK256 SWAP1 DUP2 PUSH2 0x1D7 SWAP2 SWAP1 PUSH2 0x60A JUMP JUMPDEST POP POP JUMP JUMPDEST PUSH1 0x60 PUSH0 DUP1 DUP4 PUSH20 0xFFFFFFFFFFFFFFFFFFFFFFFFFFFFFFFFFFFFFFFF AND PUSH20 0xFFFFFFFFFFFFFFFFFFFFFFFFFFFFFFFFFFFFFFFF AND DUP2 MSTORE PUSH1 0x20 ADD SWAP1 DUP2 MSTORE PUSH1 0x20 ADD PUSH0 KECCAK256 DUP1 SLOAD PUSH2 0x224 SWAP1 PUSH2 0x407 JUMP JUMPDEST DUP1 PUSH1 0x1F ADD PUSH1 0x20 DUP1 SWAP2 DIV MUL PUSH1 0x20 ADD PUSH1 0x40 MLOAD SWAP1 DUP2 ADD PUSH1 0x40 MSTORE DUP1 SWAP3 SWAP2 SWAP1 DUP2 DUP2 MSTORE PUSH1 0x20 ADD DUP3 DUP1 SLOAD PUSH2 0x250 SWAP1 PUSH2 0x407 JUMP JUMPDEST DUP1 ISZERO PUSH2 0x29B JUMPI DUP1 PUSH1 0x1F LT PUSH2 0x272 JUMPI PUSH2 0x100 DUP1 DUP4 SLOAD DIV MUL DUP4 MSTORE SWAP2 PUSH1 0x20 ADD SWAP2 PUSH2 0x29B JUMP JUMPDEST DUP3 ADD SWAP2 SWAP1 PUSH0 MSTORE PUSH1 0x20 PUSH0 KECCAK256 SWAP1 JUMPDEST DUP2 SLOAD DUP2 MSTORE SWAP1 PUSH1 0x1 ADD SWAP1 PUSH1 0x20 ADD DUP1 DUP4 GT PUSH2 0x27E JUMPI DUP3 SWAP1 SUB PUSH1 0x1F AND DUP3 ADD SWAP2 JUMPDEST POP POP POP POP POP SWAP1 POP SWAP2 SWAP1 POP JUMP JUMPDEST PUSH0 DUP1 REVERT JUMPDEST PUSH0 PUSH20 0xFFFFFFFFFFFFFFFFFFFFFFFFFFFFFFFFFFFFFFFF DUP3 AND SWAP1 POP SWAP2 SWAP1 POP JUMP JUMPDEST PUSH0 PUSH2 0x2D4 DUP3 PUSH2 0x2AB JUMP JUMPDEST SWAP1 POP SWAP2 SWAP1 POP JUMP JUMPDEST PUSH2 0x2E4 DUP2 PUSH2 0x2CA JUMP JUMPDEST DUP2 EQ PUSH2 0x2EE JUMPI PUSH0 DUP1 REVERT JUMPDEST POP JUMP JUMPDEST PUSH0 DUP2 CALLDATALOAD SWAP1 POP PUSH2 0x2FF DUP2 PUSH2 0x2DB JUMP JUMPDEST SWAP3 SWAP2 POP POP JUMP JUMPDEST PUSH0 PUSH1 0x20 DUP3 DUP5 SUB SLT ISZERO PUSH2 0x31A JUMPI PUSH2 0x319 PUSH2 0x2A7 JUMP JUMPDEST JUMPDEST PUSH0 PUSH2 0x327 DUP5 DUP3 DUP6 ADD PUSH2 0x2F1 JUMP JUMPDEST SWAP2 POP POP SWAP3 SWAP2 POP POP JUMP JUMPDEST PUSH0 DUP2 MLOAD SWAP1 POP SWAP2 SWAP1 POP JUMP JUMPDEST PUSH0 DUP3 DUP3 MSTORE PUSH1 0x20 DUP3 ADD SWAP1 POP SWAP3 SWAP2 POP POP JUMP JUMPDEST PUSH0 JUMPDEST DUP4 DUP2 LT ISZERO PUSH2 0x367 JUMPI DUP1 DUP3 ADD MLOAD DUP2 DUP5 ADD MSTORE PUSH1 0x20 DUP2 ADD SWAP1 POP PUSH2 0x34C JUMP JUMPDEST PUSH0 DUP5 DUP5 ADD MSTORE POP POP POP POP JUMP JUMPDEST PUSH0 PUSH1 0x1F NOT PUSH1 0x1F DUP4 ADD AND SWAP1 POP SWAP2 SWAP1 POP JUMP JUMPDEST PUSH0 PUSH2 0x38C DUP3 PUSH2 0x330 JUMP JUMPDEST PUSH2 0x396 DUP2 DUP6 PUSH2 0x33A JUMP JUMPDEST SWAP4 POP PUSH2 0x3A6 DUP2 DUP6 PUSH1 0x20 DUP7 ADD PUSH2 0x34A JUMP JUMPDEST PUSH2 0x3AF DUP2 PUSH2 0x372 JUMP JUMPDEST DUP5 ADD SWAP2 POP POP SWAP3 SWAP2 POP POP JUMP JUMPDEST PUSH0 PUSH1 0x20 DUP3 ADD SWAP1 POP DUP2 DUP2 SUB PUSH0 DUP4 ADD MSTORE PUSH2 0x3D2 DUP2 DUP5 PUSH2 0x382 JUMP JUMPDEST SWAP1 POP SWAP3 SWAP2 POP POP JUMP JUMPDEST PUSH32 0x4E487B7100000000000000000000000000000000000000000000000000000000 PUSH0 MSTORE PUSH1 0x22 PUSH1 0x4 MSTORE PUSH1 0x24 PUSH0 REVERT JUMPDEST PUSH0 PUSH1 0x2 DUP3 DIV SWAP1 POP PUSH1 0x1 DUP3 AND DUP1 PUSH2 0x41E JUMPI PUSH1 0x7F DUP3 AND SWAP2 POP JUMPDEST PUSH1 0x20 DUP3 LT DUP2 SUB PUSH2 0x431 JUMPI PUSH2 0x430 PUSH2 0x3DA JUMP JUMPDEST JUMPDEST POP SWAP2 SWAP1 POP JUMP JUMPDEST PUSH32 0x4E487B7100000000000000000000000000000000000000000000000000000000 PUSH0 MSTORE PUSH1 0x41 PUSH1 0x4 MSTORE PUSH1 0x24 PUSH0 REVERT JUMPDEST PUSH0 DUP2 SWAP1 POP DUP2 PUSH0 MSTORE PUSH1 0x20 PUSH0 KECCAK256 SWAP1 POP SWAP2 SWAP1 POP JUMP JUMPDEST PUSH0 PUSH1 0x20 PUSH1 0x1F DUP4 ADD DIV SWAP1 POP SWAP2 SWAP1 POP JUMP JUMPDEST PUSH0 DUP3 DUP3 SHL SWAP1 POP SWAP3 SWAP2 POP POP JUMP JUMPDEST PUSH0 PUSH1 0x8 DUP4 MUL PUSH2 0x4C0 PUSH32 0xFFFFFFFFFFFFFFFFFFFFFFFFFFFFFFFFFFFFFFFFFFFFFFFFFFFFFFFFFFFFFFFF DUP3 PUSH2 0x485 JUMP JUMPDEST PUSH2 0x4CA DUP7 DUP4 PUSH2 0x485 JUMP JUMPDEST SWAP6 POP DUP1 NOT DUP5 AND SWAP4 POP DUP1 DUP7 AND DUP5 OR SWAP3 POP POP POP SWAP4 SWAP3 POP POP POP JUMP JUMPDEST PUSH0 DUP2 SWAP1 POP SWAP2 SWAP1 POP JUMP JUMPDEST PUSH0 DUP2 SWAP1 POP SWAP2 SWAP1 POP JUMP JUMPDEST PUSH0 PUSH2 0x50E PUSH2 0x509 PUSH2 0x504 DUP5 PUSH2 0x4E2 JUMP JUMPDEST PUSH2 0x4EB JUMP JUMPDEST PUSH2 0x4E2 JUMP JUMPDEST SWAP1 POP SWAP2 SWAP1 POP JUMP JUMPDEST PUSH0 DUP2 SWAP1 POP SWAP2 SWAP1 POP JUMP JUMPDEST PUSH2 0x527 DUP4 PUSH2 0x4F4 JUMP JUMPDEST PUSH2 0x53B PUSH2 0x533 DUP3 PUSH2 0x515 JUMP JUMPDEST DUP5 DUP5 SLOAD PUSH2 0x491 JUMP JUMPDEST DUP3 SSTORE POP POP POP POP JUMP JUMPDEST PUSH0 SWAP1 JUMP JUMPDEST PUSH2 0x54F PUSH2 0x543 JUMP JUMPDEST PUSH2 0x55A DUP2 DUP5 DUP5 PUSH2 0x51E JUMP JUMPDEST POP POP POP JUMP JUMPDEST JUMPDEST DUP2 DUP2 LT ISZERO PUSH2 0x57D JUMPI PUSH2 0x572 PUSH0 DUP3 PUSH2 0x547 JUMP JUMPDEST PUSH1 0x1 DUP2 ADD SWAP1 POP PUSH2 0x560 JUMP JUMPDEST POP POP JUMP JUMPDEST PUSH1 0x1F DUP3 GT ISZERO PUSH2 0x5C2 JUMPI PUSH2 0x593 DUP2 PUSH2 0x464 JUMP JUMPDEST PUSH2 0x59C DUP5 PUSH2 0x476 JUMP JUMPDEST DUP2 ADD PUSH1 0x20 DUP6 LT ISZERO PUSH2 0x5AB JUMPI DUP2 SWAP1 POP JUMPDEST PUSH2 0x5BF PUSH2 0x5B7 DUP6 PUSH2 0x476 JUMP JUMPDEST DUP4 ADD DUP3 PUSH2 0x55F JUMP JUMPDEST POP POP JUMPDEST POP POP POP JUMP JUMPDEST PUSH0 DUP3 DUP3 SHR SWAP1 POP SWAP3 SWAP2 POP POP JUMP JUMPDEST PUSH0 PUSH2 0x5E2 PUSH0 NOT DUP5 PUSH1 0x8 MUL PUSH2 0x5C7 JUMP JUMPDEST NOT DUP1 DUP4 AND SWAP2 POP POP SWAP3 SWAP2 POP POP JUMP JUMPDEST PUSH0 PUSH2 0x5FA DUP4 DUP4 PUSH2 0x5D3 JUMP JUMPDEST SWAP2 POP DUP3 PUSH1 0x2 MUL DUP3 OR SWAP1 POP SWAP3 SWAP2 POP POP JUMP JUMPDEST PUSH2 0x613 DUP3 PUSH2 0x330 JUMP JUMPDEST PUSH8 0xFFFFFFFFFFFFFFFF DUP2 GT ISZERO PUSH2 0x62C JUMPI PUSH2 0x62B PUSH2 0x437 JUMP JUMPDEST JUMPDEST PUSH2 0x636 DUP3 SLOAD PUSH2 0x407 JUMP JUMPDEST PUSH2 0x641 DUP3 DUP3 DUP6 PUSH2 0x581 JUMP JUMPDEST PUSH0 PUSH1 0x20 SWAP1 POP PUSH1 0x1F DUP4 GT PUSH1 0x1 DUP2 EQ PUSH2 0x672 JUMPI PUSH0 DUP5 ISZERO PUSH2 0x660 JUMPI DUP3 DUP8 ADD MLOAD SWAP1 POP JUMPDEST PUSH2 0x66A DUP6 DUP3 PUSH2 0x5EF JUMP JUMPDEST DUP7 SSTORE POP PUSH2 0x6D1 JUMP JUMPDEST PUSH1 0x1F NOT DUP5 AND PUSH2 0x680 DUP7 PUSH2 0x464 JUMP JUMPDEST PUSH0 JUMPDEST DUP3 DUP2 LT ISZERO PUSH2 0x6A7 JUMPI DUP5 DUP10 ADD MLOAD DUP3 SSTORE PUSH1 0x1 DUP3 ADD SWAP2 POP PUSH1 0x20 DUP6 ADD SWAP5 POP PUSH1 0x20 DUP2 ADD SWAP1 POP PUSH2 0x682 JUMP JUMPDEST DUP7 DUP4 LT ISZERO PUSH2 0x6C4 JUMPI DUP5 DUP10 ADD MLOAD PUSH2 0x6C0 PUSH1 0x1F DUP10 AND DUP3 PUSH2 0x5D3 JUMP JUMPDEST DUP4 SSTORE POP JUMPDEST PUSH1 0x1 PUSH1 0x2 DUP9 MUL ADD DUP9 SSTORE POP POP POP JUMPDEST POP POP POP POP POP POP JUMP INVALID LOG2 PUSH5 0x6970667358 0x22 SLT KECCAK256 PUSH31 0x97272BE3DF4CDE3B0DF63AABB3BD43718A3A1B20E4EE123DC79148E976F62F PUSH5 0x736F6C6343 STOP ADDMOD AND STOP CALLER "
				},
				"gasEstimates": {
					"creation": {
						"codeDepositCost": "361400",
						"executionCost": "397",
						"totalCost": "361797"
					},
					"external": {
						"getInfo(address)": "infinite",
						"map(address)": "infinite",
						"setAddress(address)": "infinite"
					}
				},
				"methodIdentifiers": {
					"getInfo(address)": "ffdd5cf1",
					"map(address)": "b721ef6e",
					"setAddress(address)": "e30081a0"
				}
			},
			"storageLayout": {
				"storage": [
					{
						"astId": 5,
						"contract": "Bino_Mint/contracts/artifacts/test.sol:Test",
						"label": "map",
						"offset": 0,
						"slot": "0",
						"type": "t_mapping(t_address,t_string_storage)"
					}
				],
				"types": {
					"t_address": {
						"encoding": "inplace",
						"label": "address",
						"numberOfBytes": "20"
					},
					"t_mapping(t_address,t_string_storage)": {
						"encoding": "mapping",
						"key": "t_address",
						"label": "mapping(address => string)",
						"numberOfBytes": "32",
						"value": "t_string_storage"
					},
					"t_string_storage": {
						"encoding": "bytes",
						"label": "string",
						"numberOfBytes": "32"
					}
				}
			},
			"userdoc": {
				"kind": "user",
				"methods": {},
				"version": 1
			}
		}
	}
}